{
  "contractName": "Voting",
  "abi": [
    {
      "inputs": [],
      "stateMutability": "nonpayable",
      "type": "constructor"
    },
    {
      "anonymous": false,
      "inputs": [
        {
          "indexed": false,
          "internalType": "uint256",
          "name": "id",
          "type": "uint256"
        },
        {
          "indexed": false,
          "internalType": "string",
          "name": "name",
          "type": "string"
        },
        {
          "indexed": false,
          "internalType": "string",
          "name": "party",
          "type": "string"
        },
        {
          "indexed": false,
          "internalType": "string",
          "name": "constituency",
          "type": "string"
        },
        {
          "indexed": false,
          "internalType": "string",
          "name": "logo",
          "type": "string"
        }
      ],
      "name": "CandidateAdded",
      "type": "event"
    },
    {
      "anonymous": false,
      "inputs": [
        {
          "indexed": false,
          "internalType": "uint256",
          "name": "id",
          "type": "uint256"
        },
        {
          "indexed": false,
          "internalType": "bool",
          "name": "active",
          "type": "bool"
        }
      ],
      "name": "CandidateStatusChanged",
      "type": "event"
    },
    {
      "anonymous": false,
      "inputs": [],
      "name": "ElectionEnded",
      "type": "event"
    },
    {
      "anonymous": false,
      "inputs": [
        {
          "indexed": false,
          "internalType": "uint256",
          "name": "startTime",
          "type": "uint256"
        },
        {
          "indexed": false,
          "internalType": "uint256",
          "name": "duration",
          "type": "uint256"
        }
      ],
      "name": "ElectionStarted",
      "type": "event"
    },
    {
      "anonymous": false,
      "inputs": [
        {
          "indexed": false,
          "internalType": "address",
          "name": "voter",
          "type": "address"
        },
        {
          "indexed": false,
          "internalType": "uint256",
          "name": "candidateId",
          "type": "uint256"
        }
      ],
      "name": "Voted",
      "type": "event"
    },
    {
      "anonymous": false,
      "inputs": [
        {
          "indexed": false,
          "internalType": "uint256",
          "name": "winnerId",
          "type": "uint256"
        },
        {
          "indexed": false,
          "internalType": "string",
          "name": "name",
          "type": "string"
        },
        {
          "indexed": false,
          "internalType": "string",
          "name": "party",
          "type": "string"
        },
        {
          "indexed": false,
          "internalType": "uint256",
          "name": "voteCount",
          "type": "uint256"
        }
      ],
      "name": "WinnerDeclared",
      "type": "event"
    },
    {
      "inputs": [],
      "name": "admin",
      "outputs": [
        {
          "internalType": "address",
          "name": "",
          "type": "address"
        }
      ],
      "stateMutability": "view",
      "type": "function",
      "constant": true
    },
    {
      "inputs": [
        {
          "internalType": "uint256",
          "name": "",
          "type": "uint256"
        }
      ],
      "name": "candidates",
      "outputs": [
        {
          "internalType": "uint256",
          "name": "id",
          "type": "uint256"
        },
        {
          "internalType": "string",
          "name": "name",
          "type": "string"
        },
        {
          "internalType": "string",
          "name": "party",
          "type": "string"
        },
        {
          "internalType": "string",
          "name": "constituency",
          "type": "string"
        },
        {
          "internalType": "string",
          "name": "logo",
          "type": "string"
        },
        {
          "internalType": "uint256",
          "name": "voteCount",
          "type": "uint256"
        },
        {
          "internalType": "bool",
          "name": "active",
          "type": "bool"
        }
      ],
      "stateMutability": "view",
      "type": "function",
      "constant": true
    },
    {
      "inputs": [],
      "name": "candidatesCount",
      "outputs": [
        {
          "internalType": "uint256",
          "name": "",
          "type": "uint256"
        }
      ],
      "stateMutability": "view",
      "type": "function",
      "constant": true
    },
    {
      "inputs": [],
      "name": "duration",
      "outputs": [
        {
          "internalType": "uint256",
          "name": "",
          "type": "uint256"
        }
      ],
      "stateMutability": "view",
      "type": "function",
      "constant": true
    },
    {
      "inputs": [],
      "name": "electionEnded",
      "outputs": [
        {
          "internalType": "bool",
          "name": "",
          "type": "bool"
        }
      ],
      "stateMutability": "view",
      "type": "function",
      "constant": true
    },
    {
      "inputs": [],
      "name": "electionStarted",
      "outputs": [
        {
          "internalType": "bool",
          "name": "",
          "type": "bool"
        }
      ],
      "stateMutability": "view",
      "type": "function",
      "constant": true
    },
    {
      "inputs": [
        {
          "internalType": "address",
          "name": "",
          "type": "address"
        }
      ],
      "name": "hasVoted",
      "outputs": [
        {
          "internalType": "bool",
          "name": "",
          "type": "bool"
        }
      ],
      "stateMutability": "view",
      "type": "function",
      "constant": true
    },
    {
      "inputs": [],
      "name": "startTime",
      "outputs": [
        {
          "internalType": "uint256",
          "name": "",
          "type": "uint256"
        }
      ],
      "stateMutability": "view",
      "type": "function",
      "constant": true
    },
    {
      "inputs": [
        {
          "internalType": "string",
          "name": "_name",
          "type": "string"
        },
        {
          "internalType": "string",
          "name": "_party",
          "type": "string"
        },
        {
          "internalType": "string",
          "name": "_constituency",
          "type": "string"
        },
        {
          "internalType": "string",
          "name": "_logo",
          "type": "string"
        }
      ],
      "name": "addCandidate",
      "outputs": [],
      "stateMutability": "nonpayable",
      "type": "function"
    },
    {
      "inputs": [
        {
          "internalType": "uint256",
          "name": "_id",
          "type": "uint256"
        }
      ],
      "name": "deactivateCandidate",
      "outputs": [],
      "stateMutability": "nonpayable",
      "type": "function"
    },
    {
      "inputs": [
        {
          "internalType": "uint256",
          "name": "_durationInSeconds",
          "type": "uint256"
        }
      ],
      "name": "startElection",
      "outputs": [],
      "stateMutability": "nonpayable",
      "type": "function"
    },
    {
      "inputs": [],
      "name": "endElection",
      "outputs": [],
      "stateMutability": "nonpayable",
      "type": "function"
    },
    {
      "inputs": [
        {
          "internalType": "uint256",
          "name": "_candidateId",
          "type": "uint256"
        }
      ],
      "name": "vote",
      "outputs": [],
      "stateMutability": "nonpayable",
      "type": "function"
    },
    {
      "inputs": [
        {
          "internalType": "uint256",
          "name": "_id",
          "type": "uint256"
        }
      ],
      "name": "getCandidate",
      "outputs": [
        {
          "internalType": "uint256",
          "name": "id",
          "type": "uint256"
        },
        {
          "internalType": "string",
          "name": "name",
          "type": "string"
        },
        {
          "internalType": "string",
          "name": "party",
          "type": "string"
        },
        {
          "internalType": "string",
          "name": "constituency",
          "type": "string"
        },
        {
          "internalType": "string",
          "name": "logo",
          "type": "string"
        },
        {
          "internalType": "uint256",
          "name": "voteCount",
          "type": "uint256"
        },
        {
          "internalType": "bool",
          "name": "active",
          "type": "bool"
        }
      ],
      "stateMutability": "view",
      "type": "function",
      "constant": true
    },
    {
      "inputs": [],
      "name": "getTotalCandidates",
      "outputs": [
        {
          "internalType": "uint256",
          "name": "",
          "type": "uint256"
        }
      ],
      "stateMutability": "view",
      "type": "function",
      "constant": true
    },
    {
      "inputs": [
        {
          "internalType": "address",
          "name": "_voter",
          "type": "address"
        }
      ],
      "name": "checkIfVoted",
      "outputs": [
        {
          "internalType": "bool",
          "name": "",
          "type": "bool"
        }
      ],
      "stateMutability": "view",
      "type": "function",
      "constant": true
    },
    {
      "inputs": [],
      "name": "isElectionEnded",
      "outputs": [
        {
          "internalType": "bool",
          "name": "",
          "type": "bool"
        }
      ],
      "stateMutability": "view",
      "type": "function",
      "constant": true
    },
    {
      "inputs": [],
      "name": "getRemainingTime",
      "outputs": [
        {
          "internalType": "uint256",
          "name": "",
          "type": "uint256"
        }
      ],
      "stateMutability": "view",
      "type": "function",
      "constant": true
    },
    {
      "inputs": [],
      "name": "getWinner",
      "outputs": [
        {
          "internalType": "uint256",
          "name": "winnerId",
          "type": "uint256"
        },
        {
          "internalType": "string",
          "name": "name",
          "type": "string"
        },
        {
          "internalType": "string",
          "name": "party",
          "type": "string"
        },
        {
          "internalType": "uint256",
          "name": "voteCount",
          "type": "uint256"
        }
      ],
      "stateMutability": "view",
      "type": "function",
      "constant": true
    }
  ],
  "bytecode": "0x608060405234801561000f575f80fd5b50335f806101000a81548173ffffffffffffffffffffffffffffffffffffffff021916908373ffffffffffffffffffffffffffffffffffffffff1602179055506125c28061005c5f395ff3fe608060405234801561000f575f80fd5b506004361061011f575f3560e01c806359f78468116100ab578063c94ca9e31161006f578063c94ca9e314610302578063d5346da114610320578063efb98bcf1461033e578063f851a4401461035c578063fe7ce6911461037a5761011f565b806359f78468146102815780636d32dc4b1461028b57806378e97925146102a75780638e7ea5b2146102c557806397341d59146102e65761011f565b80631dfeef7a116100f25780631dfeef7a146101ab5780632d35a8a2146101db5780633477ee2e146101f957806335b8e8201461022f57806342b03cc9146102655761011f565b80630121b93f1461012357806309eef43e1461013f5780630deb56ab1461016f5780630fb5a6b41461018d575b5f80fd5b61013d600480360381019061013891906117d2565b610398565b005b61015960048036038101906101549190611857565b610600565b604051610166919061189c565b60405180910390f35b61017761061d565b60405161018491906118c4565b60405180910390f35b610195610626565b6040516101a291906118c4565b60405180910390f35b6101c560048036038101906101c09190611857565b61062c565b6040516101d2919061189c565b60405180910390f35b6101e361067e565b6040516101f091906118c4565b60405180910390f35b610213600480360381019061020e91906117d2565b610684565b6040516102269796959493929190611967565b60405180910390f35b610249600480360381019061024491906117d2565b6108e6565b60405161025c9796959493929190611967565b60405180910390f35b61027f600480360381019061027a9190611b1c565b610bfb565b005b610289610e3c565b005b6102a560048036038101906102a091906117d2565b610f77565b005b6102af61118a565b6040516102bc91906118c4565b60405180910390f35b6102cd611190565b6040516102dd9493929190611bf0565b60405180910390f35b61030060048036038101906102fb91906117d2565b6114e5565b005b61030a61169c565b604051610317919061189c565b60405180910390f35b6103286116ae565b604051610335919061189c565b60405180910390f35b6103466116c0565b60405161035391906118c4565b60405180910390f35b61036461170e565b6040516103719190611c50565b60405180910390f35b610382611731565b60405161038f919061189c565b60405180910390f35b5f60149054906101000a900460ff1680156103bf57505f60159054906101000a900460ff16155b80156103d957506002546001546103d69190611c96565b42105b610418576040517f08c379a000000000000000000000000000000000000000000000000000000000815260040161040f90611d13565b60405180910390fd5b60055f3373ffffffffffffffffffffffffffffffffffffffff1673ffffffffffffffffffffffffffffffffffffffff1681526020019081526020015f205f9054906101000a900460ff16156104a2576040517f08c379a000000000000000000000000000000000000000000000000000000000815260040161049990611d7b565b60405180910390fd5b60045481106104e6576040517f08c379a00000000000000000000000000000000000000000000000000000000081526004016104dd90611de3565b60405180910390fd5b60035f8281526020019081526020015f206006015f9054906101000a900460ff16610546576040517f08c379a000000000000000000000000000000000000000000000000000000000815260040161053d90611e4b565b60405180910390fd5b60035f8281526020019081526020015f206005015f81548092919061056a90611e69565b9190505550600160055f3373ffffffffffffffffffffffffffffffffffffffff1673ffffffffffffffffffffffffffffffffffffffff1681526020019081526020015f205f6101000a81548160ff0219169083151502179055507f4d99b957a2bc29a30ebd96a7be8e68fe50a3c701db28a91436490b7d53870ca433826040516105f5929190611eb0565b60405180910390a150565b6005602052805f5260405f205f915054906101000a900460ff1681565b5f600454905090565b60025481565b5f60055f8373ffffffffffffffffffffffffffffffffffffffff1673ffffffffffffffffffffffffffffffffffffffff1681526020019081526020015f205f9054906101000a900460ff169050919050565b60045481565b6003602052805f5260405f205f91509050805f0154908060010180546106a990611f04565b80601f01602080910402602001604051908101604052809291908181526020018280546106d590611f04565b80156107205780601f106106f757610100808354040283529160200191610720565b820191905f5260205f20905b81548152906001019060200180831161070357829003601f168201915b50505050509080600201805461073590611f04565b80601f016020809104026020016040519081016040528092919081815260200182805461076190611f04565b80156107ac5780601f10610783576101008083540402835291602001916107ac565b820191905f5260205f20905b81548152906001019060200180831161078f57829003601f168201915b5050505050908060030180546107c190611f04565b80601f01602080910402602001604051908101604052809291908181526020018280546107ed90611f04565b80156108385780601f1061080f57610100808354040283529160200191610838565b820191905f5260205f20905b81548152906001019060200180831161081b57829003601f168201915b50505050509080600401805461084d90611f04565b80601f016020809104026020016040519081016040528092919081815260200182805461087990611f04565b80156108c45780601f1061089b576101008083540402835291602001916108c4565b820191905f5260205f20905b8154815290600101906020018083116108a757829003601f168201915b505050505090806005015490806006015f9054906101000a900460ff16905087565b5f6060806060805f806004548810610933576040517f08c379a000000000000000000000000000000000000000000000000000000000815260040161092a90611f7e565b60405180910390fd5b5f60035f8a81526020019081526020015f206040518060e00160405290815f820154815260200160018201805461096990611f04565b80601f016020809104026020016040519081016040528092919081815260200182805461099590611f04565b80156109e05780601f106109b7576101008083540402835291602001916109e0565b820191905f5260205f20905b8154815290600101906020018083116109c357829003601f168201915b505050505081526020016002820180546109f990611f04565b80601f0160208091040260200160405190810160405280929190818152602001828054610a2590611f04565b8015610a705780601f10610a4757610100808354040283529160200191610a70565b820191905f5260205f20905b815481529060010190602001808311610a5357829003601f168201915b50505050508152602001600382018054610a8990611f04565b80601f0160208091040260200160405190810160405280929190818152602001828054610ab590611f04565b8015610b005780601f10610ad757610100808354040283529160200191610b00565b820191905f5260205f20905b815481529060010190602001808311610ae357829003601f168201915b50505050508152602001600482018054610b1990611f04565b80601f0160208091040260200160405190810160405280929190818152602001828054610b4590611f04565b8015610b905780601f10610b6757610100808354040283529160200191610b90565b820191905f5260205f20905b815481529060010190602001808311610b7357829003601f168201915b5050505050815260200160058201548152602001600682015f9054906101000a900460ff1615151515815250509050805f015181602001518260400151836060015184608001518560a001518660c00151975097509750975097509750975050919395979092949650565b5f8054906101000a900473ffffffffffffffffffffffffffffffffffffffff1673ffffffffffffffffffffffffffffffffffffffff163373ffffffffffffffffffffffffffffffffffffffff1614610c88576040517f08c379a0000000000000000000000000000000000000000000000000000000008152600401610c7f9061200c565b60405180910390fd5b5f60149054906101000a900460ff161580610cae57505f60159054906101000a900460ff165b80610cc85750600254600154610cc49190611c96565b4210155b610d07576040517f08c379a0000000000000000000000000000000000000000000000000000000008152600401610cfe90612074565b60405180910390fd5b6040518060e0016040528060045481526020018581526020018481526020018381526020018281526020015f81526020016001151581525060035f60045481526020019081526020015f205f820151815f01556020820151816001019081610d6f919061222f565b506040820151816002019081610d85919061222f565b506060820151816003019081610d9b919061222f565b506080820151816004019081610db1919061222f565b5060a0820151816005015560c0820151816006015f6101000a81548160ff0219169083151502179055509050507f1908f3f8bf9e04cbee388cdea6025f92e954127dec768c7e092afb158071f0d060045485858585604051610e179594939291906122fe565b60405180910390a160045f815480929190610e3190611e69565b919050555050505050565b5f8054906101000a900473ffffffffffffffffffffffffffffffffffffffff1673ffffffffffffffffffffffffffffffffffffffff163373ffffffffffffffffffffffffffffffffffffffff1614610ec9576040517f08c379a0000000000000000000000000000000000000000000000000000000008152600401610ec09061200c565b60405180910390fd5b5f60149054906101000a900460ff168015610ef057505f60159054906101000a900460ff16155b610f2f576040517f08c379a0000000000000000000000000000000000000000000000000000000008152600401610f26906123b5565b60405180910390fd5b60015f60156101000a81548160ff0219169083151502179055507f66ec723071e4bb646f7b35d31bc2dee8510979bd8c180edd0690d4f5e802f1e460405160405180910390a1565b5f8054906101000a900473ffffffffffffffffffffffffffffffffffffffff1673ffffffffffffffffffffffffffffffffffffffff163373ffffffffffffffffffffffffffffffffffffffff1614611004576040517f08c379a0000000000000000000000000000000000000000000000000000000008152600401610ffb9061200c565b60405180910390fd5b5f60149054906101000a900460ff16158061102a57505f60159054906101000a900460ff165b8061104457506002546001546110409190611c96565b4210155b611083576040517f08c379a000000000000000000000000000000000000000000000000000000000815260040161107a90612074565b60405180910390fd5b5f600454116110c7576040517f08c379a00000000000000000000000000000000000000000000000000000000081526004016110be9061241d565b60405180910390fd5b5f8111611109576040517f08c379a000000000000000000000000000000000000000000000000000000000815260040161110090612485565b60405180910390fd5b60015f60146101000a81548160ff0219169083151502179055505f8060156101000a81548160ff02191690831515021790555042600181905550806002819055507fff6a30dd22f5e8b783044c7d895a6e8592b55c56f139978d44dc39daf596731f60015460025460405161117f9291906124a3565b60405180910390a150565b60015481565b5f6060805f61119d611731565b6111dc576040517f08c379a00000000000000000000000000000000000000000000000000000000081526004016111d390612514565b60405180910390fd5b5f805f5b600454811015611234578260035f8381526020019081526020015f206005015411156112215760035f8281526020019081526020015f206005015492508091505b808061122c90611e69565b9150506111e0565b505f60035f8381526020019081526020015f206040518060e00160405290815f820154815260200160018201805461126b90611f04565b80601f016020809104026020016040519081016040528092919081815260200182805461129790611f04565b80156112e25780601f106112b9576101008083540402835291602001916112e2565b820191905f5260205f20905b8154815290600101906020018083116112c557829003601f168201915b505050505081526020016002820180546112fb90611f04565b80601f016020809104026020016040519081016040528092919081815260200182805461132790611f04565b80156113725780601f1061134957610100808354040283529160200191611372565b820191905f5260205f20905b81548152906001019060200180831161135557829003601f168201915b5050505050815260200160038201805461138b90611f04565b80601f01602080910402602001604051908101604052809291908181526020018280546113b790611f04565b80156114025780601f106113d957610100808354040283529160200191611402565b820191905f5260205f20905b8154815290600101906020018083116113e557829003601f168201915b5050505050815260200160048201805461141b90611f04565b80601f016020809104026020016040519081016040528092919081815260200182805461144790611f04565b80156114925780601f1061146957610100808354040283529160200191611492565b820191905f5260205f20905b81548152906001019060200180831161147557829003601f168201915b5050505050815260200160058201548152602001600682015f9054906101000a900460ff1615151515815250509050805f0151816020015182604001518360a00151965096509650965050505090919293565b5f8054906101000a900473ffffffffffffffffffffffffffffffffffffffff1673ffffffffffffffffffffffffffffffffffffffff163373ffffffffffffffffffffffffffffffffffffffff1614611572576040517f08c379a00000000000000000000000000000000000000000000000000000000081526004016115699061200c565b60405180910390fd5b5f60149054906101000a900460ff16158061159857505f60159054906101000a900460ff165b806115b257506002546001546115ae9190611c96565b4210155b6115f1576040517f08c379a00000000000000000000000000000000000000000000000000000000081526004016115e890612074565b60405180910390fd5b6004548110611635576040517f08c379a000000000000000000000000000000000000000000000000000000000815260040161162c90611f7e565b60405180910390fd5b5f60035f8381526020019081526020015f206006015f6101000a81548160ff0219169083151502179055507f07a9fd7fc1368910c1b62e58319c10b4ba034e9e4d58aa2ef36e9283fc2c5f97815f604051611691929190612532565b60405180910390a150565b5f60159054906101000a900460ff1681565b5f60149054906101000a900460ff1681565b5f8060149054906101000a900460ff1615806116e057506116df611731565b5b156116ed575f905061170b565b426002546001546116fe9190611c96565b6117089190612559565b90505b90565b5f8054906101000a900473ffffffffffffffffffffffffffffffffffffffff1681565b5f8060159054906101000a900460ff161561174f576001905061178b565b5f60149054906101000a900460ff16801561177957506002546001546117759190611c96565b4210155b15611787576001905061178b565b5f90505b90565b5f604051905090565b5f80fd5b5f80fd5b5f819050919050565b6117b18161179f565b81146117bb575f80fd5b50565b5f813590506117cc816117a8565b92915050565b5f602082840312156117e7576117e6611797565b5b5f6117f4848285016117be565b91505092915050565b5f73ffffffffffffffffffffffffffffffffffffffff82169050919050565b5f611826826117fd565b9050919050565b6118368161181c565b8114611840575f80fd5b50565b5f813590506118518161182d565b92915050565b5f6020828403121561186c5761186b611797565b5b5f61187984828501611843565b91505092915050565b5f8115159050919050565b61189681611882565b82525050565b5f6020820190506118af5f83018461188d565b92915050565b6118be8161179f565b82525050565b5f6020820190506118d75f8301846118b5565b92915050565b5f81519050919050565b5f82825260208201905092915050565b5f5b838110156119145780820151818401526020810190506118f9565b5f8484015250505050565b5f601f19601f8301169050919050565b5f611939826118dd565b61194381856118e7565b93506119538185602086016118f7565b61195c8161191f565b840191505092915050565b5f60e08201905061197a5f83018a6118b5565b818103602083015261198c818961192f565b905081810360408301526119a0818861192f565b905081810360608301526119b4818761192f565b905081810360808301526119c8818661192f565b90506119d760a08301856118b5565b6119e460c083018461188d565b98975050505050505050565b5f80fd5b5f80fd5b7f4e487b71000000000000000000000000000000000000000000000000000000005f52604160045260245ffd5b611a2e8261191f565b810181811067ffffffffffffffff82111715611a4d57611a4c6119f8565b5b80604052505050565b5f611a5f61178e565b9050611a6b8282611a25565b919050565b5f67ffffffffffffffff821115611a8a57611a896119f8565b5b611a938261191f565b9050602081019050919050565b828183375f83830152505050565b5f611ac0611abb84611a70565b611a56565b905082815260208101848484011115611adc57611adb6119f4565b5b611ae7848285611aa0565b509392505050565b5f82601f830112611b0357611b026119f0565b5b8135611b13848260208601611aae565b91505092915050565b5f805f8060808587031215611b3457611b33611797565b5b5f85013567ffffffffffffffff811115611b5157611b5061179b565b5b611b5d87828801611aef565b945050602085013567ffffffffffffffff811115611b7e57611b7d61179b565b5b611b8a87828801611aef565b935050604085013567ffffffffffffffff811115611bab57611baa61179b565b5b611bb787828801611aef565b925050606085013567ffffffffffffffff811115611bd857611bd761179b565b5b611be487828801611aef565b91505092959194509250565b5f608082019050611c035f8301876118b5565b8181036020830152611c15818661192f565b90508181036040830152611c29818561192f565b9050611c3860608301846118b5565b95945050505050565b611c4a8161181c565b82525050565b5f602082019050611c635f830184611c41565b92915050565b7f4e487b71000000000000000000000000000000000000000000000000000000005f52601160045260245ffd5b5f611ca08261179f565b9150611cab8361179f565b9250828201905080821115611cc357611cc2611c69565b5b92915050565b7f456c656374696f6e206973206e6f7420616374697665000000000000000000005f82015250565b5f611cfd6016836118e7565b9150611d0882611cc9565b602082019050919050565b5f6020820190508181035f830152611d2a81611cf1565b9050919050565b7f596f75206861766520616c726561647920766f746564000000000000000000005f82015250565b5f611d656016836118e7565b9150611d7082611d31565b602082019050919050565b5f6020820190508181035f830152611d9281611d59565b9050919050565b7f496e76616c69642063616e6469646174652049440000000000000000000000005f82015250565b5f611dcd6014836118e7565b9150611dd882611d99565b602082019050919050565b5f6020820190508181035f830152611dfa81611dc1565b9050919050565b7f43616e646964617465206973206e6f74206163746976650000000000000000005f82015250565b5f611e356017836118e7565b9150611e4082611e01565b602082019050919050565b5f6020820190508181035f830152611e6281611e29565b9050919050565b5f611e738261179f565b91507fffffffffffffffffffffffffffffffffffffffffffffffffffffffffffffffff8203611ea557611ea4611c69565b5b600182019050919050565b5f604082019050611ec35f830185611c41565b611ed060208301846118b5565b9392505050565b7f4e487b71000000000000000000000000000000000000000000000000000000005f52602260045260245ffd5b5f6002820490506001821680611f1b57607f821691505b602082108103611f2e57611f2d611ed7565b5b50919050565b7f43616e64696461746520646f6573206e6f7420657869737400000000000000005f82015250565b5f611f686018836118e7565b9150611f7382611f34565b602082019050919050565b5f6020820190508181035f830152611f9581611f5c565b9050919050565b7f4f6e6c792061646d696e2063616e20706572666f726d207468697320616374695f8201527f6f6e000000000000000000000000000000000000000000000000000000000000602082015250565b5f611ff66022836118e7565b915061200182611f9c565b604082019050919050565b5f6020820190508181035f83015261202381611fea565b9050919050565b7f456c656374696f6e2069732063757272656e746c7920616374697665000000005f82015250565b5f61205e601c836118e7565b91506120698261202a565b602082019050919050565b5f6020820190508181035f83015261208b81612052565b9050919050565b5f819050815f5260205f209050919050565b5f6020601f8301049050919050565b5f82821b905092915050565b5f600883026120ee7fffffffffffffffffffffffffffffffffffffffffffffffffffffffffffffffff826120b3565b6120f886836120b3565b95508019841693508086168417925050509392505050565b5f819050919050565b5f61213361212e6121298461179f565b612110565b61179f565b9050919050565b5f819050919050565b61214c83612119565b6121606121588261213a565b8484546120bf565b825550505050565b5f90565b612174612168565b61217f818484612143565b505050565b5b818110156121a2576121975f8261216c565b600181019050612185565b5050565b601f8211156121e7576121b881612092565b6121c1846120a4565b810160208510156121d0578190505b6121e46121dc856120a4565b830182612184565b50505b505050565b5f82821c905092915050565b5f6122075f19846008026121ec565b1980831691505092915050565b5f61221f83836121f8565b9150826002028217905092915050565b612238826118dd565b67ffffffffffffffff811115612251576122506119f8565b5b61225b8254611f04565b6122668282856121a6565b5f60209050601f831160018114612297575f8415612285578287015190505b61228f8582612214565b8655506122f6565b601f1984166122a586612092565b5f5b828110156122cc578489015182556001820191506020850194506020810190506122a7565b868310156122e957848901516122e5601f8916826121f8565b8355505b6001600288020188555050505b505050505050565b5f60a0820190506123115f8301886118b5565b8181036020830152612323818761192f565b90508181036040830152612337818661192f565b9050818103606083015261234b818561192f565b9050818103608083015261235f818461192f565b90509695505050505050565b7f456c656374696f6e206e6f742072756e6e696e670000000000000000000000005f82015250565b5f61239f6014836118e7565b91506123aa8261236b565b602082019050919050565b5f6020820190508181035f8301526123cc81612393565b9050919050565b7f4e6f2063616e6469646174657320617661696c61626c650000000000000000005f82015250565b5f6124076017836118e7565b9150612412826123d3565b602082019050919050565b5f6020820190508181035f830152612434816123fb565b9050919050565b7f4475726174696f6e206d75737420626520706f736974697665000000000000005f82015250565b5f61246f6019836118e7565b915061247a8261243b565b602082019050919050565b5f6020820190508181035f83015261249c81612463565b9050919050565b5f6040820190506124b65f8301856118b5565b6124c360208301846118b5565b9392505050565b7f456c656374696f6e206e6f7420656e64656420796574000000000000000000005f82015250565b5f6124fe6016836118e7565b9150612509826124ca565b602082019050919050565b5f6020820190508181035f83015261252b816124f2565b9050919050565b5f6040820190506125455f8301856118b5565b612552602083018461188d565b9392505050565b5f6125638261179f565b915061256e8361179f565b925082820390508181111561258657612585611c69565b5b9291505056fea264697066735822122063517356cfa662d9ffe4ce180214b63d76544572ed663acb8efa7841907555fc64736f6c63430008140033",
  "immutableReferences": {},
  "source": "// SPDX-License-Identifier: MIT\r\npragma solidity ^0.8.0;\r\n\r\ncontract Voting {\r\n    address public admin;\r\n    bool public electionStarted;\r\n    bool public electionEnded;\r\n    uint public startTime;\r\n    uint public duration; // Duration will be set when the election starts\r\n\r\n    struct Candidate {\r\n        uint id;\r\n        string name;\r\n        string party;\r\n        string constituency;\r\n        string logo;\r\n        uint voteCount;\r\n        bool active; // Flag to manage candidate status\r\n    }\r\n\r\n    mapping(uint => Candidate) public candidates;\r\n    uint public candidatesCount;\r\n\r\n    mapping(address => bool) public hasVoted;\r\n\r\n    event CandidateAdded(uint id, string name, string party, string constituency, string logo);\r\n    event Voted(address voter, uint candidateId);\r\n    event ElectionStarted(uint startTime, uint duration);\r\n    event ElectionEnded();\r\n    event CandidateStatusChanged(uint id, bool active);\r\n    event WinnerDeclared(uint winnerId, string name, string party, uint voteCount);\r\n\r\n    modifier onlyAdmin() {\r\n        require(msg.sender == admin, \"Only admin can perform this action\");\r\n        _;\r\n    }\r\n\r\n    modifier electionActive() {\r\n        require(\r\n            electionStarted && !electionEnded && block.timestamp < startTime + duration,\r\n            \"Election is not active\"\r\n        );\r\n        _;\r\n    }\r\n\r\n    modifier electionInactive() {\r\n        require(\r\n            !electionStarted || electionEnded || block.timestamp >= startTime + duration,\r\n            \"Election is currently active\"\r\n        );\r\n        _;\r\n    }\r\n\r\n    constructor() {\r\n        admin = msg.sender;\r\n    }\r\n\r\n    // Add a new candidate (admin only)\r\n    function addCandidate(\r\n        string memory _name,\r\n        string memory _party,\r\n        string memory _constituency,\r\n        string memory _logo\r\n    ) public onlyAdmin electionInactive {\r\n        candidates[candidatesCount] = Candidate(\r\n            candidatesCount,\r\n            _name,\r\n            _party,\r\n            _constituency,\r\n            _logo,\r\n            0,\r\n            true // Candidate is active by default\r\n        );\r\n        emit CandidateAdded(candidatesCount, _name, _party, _constituency, _logo);\r\n        candidatesCount++;\r\n    }\r\n\r\n    // Deactivate a candidate (admin only)\r\n    function deactivateCandidate(uint _id) public onlyAdmin electionInactive {\r\n        require(_id < candidatesCount, \"Candidate does not exist\");\r\n        candidates[_id].active = false;\r\n        emit CandidateStatusChanged(_id, false);\r\n    }\r\n\r\n    // Start election with a specific duration (admin only)\r\n    function startElection(uint _durationInSeconds) public onlyAdmin electionInactive {\r\n        require(candidatesCount > 0, \"No candidates available\");\r\n        require(_durationInSeconds > 0, \"Duration must be positive\");\r\n\r\n        electionStarted = true;\r\n        electionEnded = false;\r\n        startTime = block.timestamp;\r\n        duration = _durationInSeconds;\r\n\r\n        emit ElectionStarted(startTime, duration);\r\n    }\r\n\r\n    // End the election manually (admin only)\r\n    function endElection() public onlyAdmin {\r\n        require(electionStarted && !electionEnded, \"Election not running\");\r\n        electionEnded = true;\r\n        emit ElectionEnded();\r\n    }\r\n\r\n    // Vote for a candidate\r\n    function vote(uint _candidateId) public electionActive {\r\n        require(!hasVoted[msg.sender], \"You have already voted\");\r\n        require(_candidateId < candidatesCount, \"Invalid candidate ID\");\r\n        require(candidates[_candidateId].active, \"Candidate is not active\");\r\n\r\n        candidates[_candidateId].voteCount++;\r\n        hasVoted[msg.sender] = true;\r\n\r\n        emit Voted(msg.sender, _candidateId);\r\n    }\r\n\r\n    // Get a candidate's full details\r\n    function getCandidate(uint _id) public view returns (\r\n        uint id,\r\n        string memory name,\r\n        string memory party,\r\n        string memory constituency,\r\n        string memory logo,\r\n        uint voteCount,\r\n        bool active\r\n    ) {\r\n        require(_id < candidatesCount, \"Candidate does not exist\");\r\n        Candidate memory c = candidates[_id];\r\n        return (c.id, c.name, c.party, c.constituency, c.logo, c.voteCount, c.active);\r\n    }\r\n\r\n    // Return total number of candidates\r\n    function getTotalCandidates() public view returns (uint) {\r\n        return candidatesCount;\r\n    }\r\n\r\n    // Check if a user has voted\r\n    function checkIfVoted(address _voter) public view returns (bool) {\r\n        return hasVoted[_voter];\r\n    }\r\n\r\n    // Election state\r\n    function isElectionEnded() public view returns (bool) {\r\n        if (electionEnded) return true;\r\n        if (electionStarted && block.timestamp >= startTime + duration) return true;\r\n        return false;\r\n    }\r\n\r\n    // Time remaining\r\n    function getRemainingTime() public view returns (uint) {\r\n        if (!electionStarted || isElectionEnded()) {\r\n            return 0;\r\n        }\r\n        return (startTime + duration) - block.timestamp;\r\n    }\r\n\r\n    // Get winner (after election ends)\r\n    function getWinner() public view returns (\r\n        uint winnerId,\r\n        string memory name,\r\n        string memory party,\r\n        uint voteCount\r\n    ) {\r\n        require(isElectionEnded(), \"Election not ended yet\");\r\n\r\n        uint maxVotes = 0;\r\n        uint winner = 0;\r\n\r\n        for (uint i = 0; i < candidatesCount; i++) {\r\n            if (candidates[i].voteCount > maxVotes) {\r\n                maxVotes = candidates[i].voteCount;\r\n                winner = i;\r\n            }\r\n        }\r\n\r\n        Candidate memory c = candidates[winner];\r\n        return (c.id, c.name, c.party, c.voteCount);\r\n    }\r\n}",
  "sourcePath": "C:\\Users\\sivam\\OneDrive\\Desktop\\BlockchainProjects\\Voting\\voting-dapp\\contracts\\Voting.sol",
  "compiler": {
    "name": "solc",
    "version": "0.8.20+commit.a1b79de6.Emscripten.clang"
  },
  "schemaVersion": "3.4.16",
  "updatedAt": "2025-07-29T14:54:14.988Z",
  "networkType": "ethereum",
  "devdoc": {
    "kind": "dev",
    "methods": {},
    "version": 1
  },
  "userdoc": {
    "kind": "user",
    "methods": {},
    "version": 1
  }
}